:020000040800F2
:10000000A8090020C5020008015000086D4600083C
:10001000FD4F00085D110008B588000800000000D1
:1000200000000000000000000000000065730008F0
:100030006111000800000000055000086973000805
:10004000DF020008DF020008DF020008DF0200080C
:10005000DF020008DF020008DF020008DF020008FC
:10006000DF020008DF020008DF020008DF020008EC
:10007000DF020008DF020008DF020008DF020008DC
:10008000DF020008000000005D0E0008DF0200082B
:10009000DF020008DF020008DF020008DF020008BC
:1000A000DF020008DF020008DF020008DF020008AC
:1000B00081730008DF020008DF020008DF02000889
:1000C000DF020008DF020008DF020008DF0200088C
:1000D000DF02000859880008DF020008DF0200087C
:1000E000DF020008DF020008DF020008DF0200086C
:1000F000DF020008DF020008DF0200080000000045
:1001000000000000DF02000800000000DF0200081D
:10011000DF020008000000008D730008DF02000805
:10012000DF020008DF020008DF020008DF0200082B
:10013000DF0200080000000000000000DF020008ED
:10014000DF020008DF0200080000000000000000DD
:10015000000000000000000000000000000000009F
:10016000000000000000000000000000DF020008A6
:10017000DF02000800000000000000000000000096
:1001800000000000DF020008000000000000000086
:10019000000000000000000000000000000000005F
:1001A0000000000000000000DF020008DF0200087D
:1001B000DF020008DF020008DF0200080000000084
:1001C00000000000DF020008000000000000000046
:1001D000DF020008DF02000800F002F800F062F819
:1001E00014A696E8000CB244B344DA4501D100F0FD
:1001F00059F8BAE80F000FA696E83000A5EB040501
:1002000004EB0607AAEB0704A7F101074FEA15154F
:100210004FEA3414A4F10104AC4201D300F042F8D7
:1002200013F0010F18BFFB1A43F0010300F001F8AF
:10023000DBE71847CCAD0000ECAD0000103A24BF5E
:1002400078C878C1FAD8520724BF30C830C144BF3B
:1002500004680C6070470000704700000023002411
:1002600000250026103A28BF78C1FBD8520728BFC6
:1002700030C148BF0B607047662909F03485642996
:1002800000F0CC80002070471FB509F01FFD00F082
:1002900077FC04000020002109F070F9E0601FBD28
:1002A00010B510BD00F06CFD1146FFF7EDFF08F032
:1002B00035FC00F08AFD03B4FFF7F2FF03BC08F041
:1002C000FBFA00000948804709480047FEE7FEE7BF
:1002D000FEE7FEE7FEE7FEE7FEE7FEE7FEE7FEE7F6
:1002E00004480549054A064B704700006D73000835
:1002F000D9010008A8030020A8090020A8050020B3
:10030000A805002053EA020C00F069802DE9F04BAB
:100310004FF00006002B1FBFB3FA83F503FA05F474
:1003200024FA05F65E4012BF1643B2FA82F502FACD
:1003300005F4C5F120051EBF22FA05FC44EA0C04B1
:10034000203556EA044C4FEA144418BF641C4FF0A1
:1003500000084FF00009904271EB030C39D30029DB
:1003600019BFB1FA81F701FA07F6B0FA80F700FA7F
:1003700007F6C7F120071EBF20FA07FC46EA0C0665
:100380002037B6FBF4FCA7EB0507103F07F01F0B67
:10039000CBF120062CFA06F60CFA0BFB44BFB34651
:1003A0000026202FA4BF5E464FF0000B5BEA060C30
:1003B00008BF4FF0010B19EB0B0948EB0608ABFB2C
:1003C000027C06FB02CC0BFB03CCC01B71EB0C01C7
:1003D000C1E70B46024641464846BDE8F08B13B5DF
:1003E000084318BF4FF0FF300146AFF30080BDE86F
:1003F0001C4070470FB41CB5074B06AA7B446946E6
:100400000090059800F0A3FB0020694600F0B2FBC5
:100410001CBC5DF814FB0000750700002DE9F041DD
:100420000646002410687529314616A510D0AFF392
:100430000080002802DA404213A507E031688A07ED
:1004400001D512A502E0490704D511A5012401E058
:10045000AFF3008000210A2206F1240709E0B0FB77
:10046000F2FCB0FBF2F302FB1C003030785418466B
:10047000491C0028F3D123462A463046BDE8F04106
:1004800000F0F8B8000000002D0000002B00000074
:10049000200000002DE9F0474FF0000A894604468D
:1004A000C0F820A02046E1688847002876D025289B
:1004B00006D0D4E901219047206A401C2062F1E770
:1004C000E168204600268847C4F81CA0054600279E
:1004D000C4F818A02A2D09D0284609F047F838B3E7
:1004E00004EB8708303DC8F8185019E059F8041B90
:1004F000204604EB87029161E1688847012F054699
:1005000018D1E069002820DA26F020061DE0D8F88E
:10051000180000EB800005EB40003038C8F81800E8
:100520002046E1688847054609F020F80028EED10A
:10053000012F0AD02E2D08D12046E16888477F1C64
:100540000546022F46F02006C4DBA069002803DA26
:10055000404246F00106A061F00701D026F01006E7
:100560006C2D0AD0682D08D04C2D39D06A2D35D08D
:10057000742D35D07A2D33D016E0E1682F46204611
:100580008847B84205460AD16C2F27D04FF48060C7
:10059000E168064320468847054605E027E06C2FC2
:1005A0001AD04FF4807006430DB3A5F1410019280D
:1005B00002D8203546F400664A4629462046266081
:1005C0004E46FFF759FE80B101280BD0F61D26F0EC
:1005D000070000F1080965E74020E4E78020D7E73D
:1005E0000020D5E706F104095CE7284661E7206AA8
:1005F000BDE8F08710B5044603E008F05FF9401C41
:1006000009D014F8010B05490028F6D1BDE81040C7
:100610000A2008F053B94FF0FF3010BD4801002008
:100620004FF0000200B5134694469646203922BF8B
:10063000A0E80C50A0E80C50B1F12001BFF4F7AFD6
:10064000090728BFA0E80C5048BF0CC05DF804EBB8
:10065000890028BF40F8042B08BF704748BF20F826
:10066000022B11F0804F18BF00F8012B7047704724
:10067000704770472DE9F0470D469946924604466B
:1006800000F124080168880604D5E06921F0100112
:10069000216000E00120A84201DD471B00E00027A7
:1006A000A1697A1902EB0900081AA0612078C00636
:1006B00002D42046AFF30080002608E0D4E90121EF
:1006C0001AF806009047206A401C761C20624E45AE
:1006D000F4DB2078C0060AD52046AFF3008006E0A0
:1006E000D4E9012130209047206A401C2062381E46
:1006F000A7F10107F4DC07E0D4E9012118F80500AF
:100700009047206A401C2062281EA5F10105F3DCF9
:100710002046AFF300802078000602D50220BDE815
:10072000F0870120FBE72DE9FF4F0C461E464FF0F6
:10073000FF378BB0D2E90001DDF860800A908A466D
:10074000C1F30A5505B93D46002108464FF00000A7
:10075000BAF1000F00F4400005DA00EB80004FF41E
:10076000400101EA50004FEA9059B9F1010F00DD54
:10077000B9460A9850EA4A000ED044F61050A5F245
:10078000FF3545432F14B8F1000F1ED07542291EC6
:100790001EDDC9F100021CE0B8F1010F4FF00000AE
:1007A00001D0302103E0F24305E02154401CB04267
:1007B000FBDB30460022002121540B99C1F8088050
:1007C000C1E900200FB0BDE8F08FBD1B6D1CDEE756
:1007D0004A4600DA694206A800F05CFA06AB93E8E4
:1007E000070003AB83E8070050460A9908F0DEFAD9
:1007F0008DE80700A0F500501F3800900398002DE9
:100800000ADD42F21F014A460844002303A903906F
:10081000684608F047FD09E0A0F500504A461F3839
:10082000002303A90390684608F051FD8DE80700F6
:100830000004000C03D04FF0FF30410800E01046E8
:10084000B8F1000F03D00022009215461EE0751E7D
:1008500005D400F099F9303262556D1EF9D5B346D2
:100860000122084302D000227F1C04E020783028B7
:1008700001D100227F1E002A099784D01DE0112D8E
:1008800007DA00F081F9303262556D1C50EA01023E
:10089000F5D1084302D00098C8B10EE00021681ECF
:1008A00005E0235C625C63542254401E491C814273
:1008B000F7DBAB46A81B401E0990002004F80B0094
:1008C0000B98099AC0F80880C0E9002B7AE7112636
:1008D0004FF0000857E72DE9F04F88460446D21D37
:1008E00022F0070191B0D1E90001CDE90A0108F039
:1008F00025FE02460B98C00F01D02D2007E020688E
:10090000810701D52B2002E0202101EAC000032A43
:10091000099001D0072A05DB03464146204600F036
:1009200079F90BE12078800601D5E06900E0062026
:10093000B8F1650F814606D0B8F1660F18D0B8F14E
:10094000670F70D131E00020B9F1110F009001DB89
:10095000112301E009F101030AAA01A90CA8FFF77C
:10096000E2FEDDE90C70002609F10105834647E04F
:1009700001204B4600904FF000470AAA01A90CA89D
:10098000FFF7D1FEDDE90DB00C995D46002610B9E8
:1009900009F101000D18B9EB050003D4C0F1FF36D1
:1009A00009F10105A5EB09002BE0B9F1010F01DA0E
:1009B0004FF001090020B9F1110F0090484601DD08
:1009C000112300E003460AAA01A90CA8FFF7ABFE19
:1009D000DDE90C704D4600268346207800070AD4D6
:1009E000AB4500DA5D4601A8012D04DD411911F87F
:1009F000011C302907D04F4502DA17F1040F04DA41
:100A0000012082460FE06D1EEEE7002F02DCED1B99
:100A10003E4403E0781CA84200DD7D1CB81B00F1B9
:100A2000010A4FF000472078000703D4AA4501DBF4
:100A30004FF0FF3A0021B7F1004F0DF143088DF858
:100A4000431024D002202B23002F01DA7F422D23D4
:100A50000A21021EA0F1010000DC5FB197FBF1FC4E
:100A600097FBF1F201FB1C7C17460CF1300C08F8E7
:100A700001CDEEE7A8F1010003702188090501D539
:100A8000452100E06521A0F1010800F8011C09984A
:100A90000FA9A1EB0807FF1D00B10120411901EBCF
:100AA000EA70A1693844081A401EA0612078C00687
:100AB00002D42046AFF30080099828B1D4E901217F
:100AC0009047206A401C20622078C00622D520462C
:100AD000AFF300801EE0002E04DBB34502DD01A869
:100AE000805D00E03020D4E901219047206A401C5D
:100AF0002062761CAAF101005FEA000A0AD100F028
:100B00003FF8C0680168405CD4E901219047206A41
:100B1000401C2062281EA5F10105DCDC07E0D4E9B9
:100B2000012118F8010B9047206A401C2062381EF2
:100B3000A7F10107F3DC2046AFF30080032011B0DA
:100B400041E6000001694A1C02610878704700B55F
:100B50008FB0CDE901310021059105497944CDE9F6
:100B6000031011466846FFF795FC0FB000BD00006A
:100B7000E5FFFFFF0A6802F8010B0A6070470000FA
:100B8000004870473800002030B5B0F10A0271F11A
:100B900000034FEA900E4EEA817EB0EB0E0061EB4F
:100BA00091014FEA101E4EEA017E10EB0E0041EB60
:100BB00011114FEA102E4EEA016E10EB0E0041EBC0
:100BC00011214FEA104E4EEA014E10EB0E0041EBA0
:100BD0001141401841F100014FEAD00040EA417054
:100BE0004FEAD1014FEA810444EA907410EB80058A
:100BF00044EB01046D1944EB0404521BA3414FF074
:100C0000000348BF0A3200D530BD401C41F100014D
:100C100030BD00002DE9F0411F460446032601685F
:100C2000072A01F4006004DB08B116A505E016A54B
:100C300003E008B115A500E015A521F01000206023
:100C4000A069C01EA0610FB1401EA0612046AFF395
:100C500000804FB1D4E9012138469047206A401CFA
:100C60002062C01C206206E0206AFAE7D4E9012174
:100C700015F8010B9047761EF8D22046AFF300809E
:100C8000BDE8F0814E414E006E616E00494E460057
:100C9000696E66002DE9F047814616468AB03548F0
:100CA00078440DC88DE80D0032487844801C03ACB0
:100CB0000DC884E80D0041F69B300844372190FBB5
:100CC000F1F290FBF1F5A5F1800501FB12041B3C4C
:100CD00002D56442012000E00020DFF898A08046A1
:100CE0000027FA44AAF1BE0A0EE0E0070AD0324615
:100CF000684607EB470101230AEB810108F0E7FA98
:100D00008DE8070064107F1C002CEED1194F7F4442
:100D1000AE3F19E0E80715D007EB04100DF1180AF3
:100D200090E80E008AE80E00C068F04201D19819E0
:100D300008903246012306A903A808F0C8FA03ABBD
:100D400083E807006D10641C002DE3D14FF0010310
:100D500032466946B8F1000F03A802D008F0A2FAA3
:100D600001E008F0B4FAC9E90001C9F808200AB0A6
:100D7000BDE8F087C49000000048704718000020CC
:100D80007546FFF7F9FFAE4605006946534620F069
:100D90000700854618B020B5FFF7A2FABDE820404D
:100DA0004FF000064FF000074FF000084FF0000B27
:100DB000AC46ACE8C009ACE8C009ACE8C009ACE896
:100DC000C00921F007018D46704710B50446AFF306
:100DD00000802046BDE81040FFF76DBA000000001B
:100DE00030B44FF0013C50F8042B51F8043BCCFADE
:100DF00052F4D51A20D1FCB950F8042B51F8043B19
:100E0000CCFA52F4D51A17D1B4B950F8042B51F8D2
:100E1000043BCCFA52F4D51A0ED16CB950F8042B1D
:100E200051F8043BCCFA52F4D51A05D1002CDAD093
:100E300030BC4FF00000704729BAB1FA81F111F0CF
:100E40001801D1F120008440F2D1CA40CB4012F009
:100E5000FF0213F0FF0330BCD01A704740F2A0101D
:100E6000C2F2000000F060BB70B504460068826802
:100E7000836802F0040203F00803D21800F0B8807F
:100E8000C26892016ED5627F012A6BD1227F012A4E
:100E900068D10168490661D40121CAF24031026873
:100EA00052065BD40268520658D4026852065CBFF0
:100EB00002685FEA426251D4026852065CBF02686F
:100EC0005FEA42624AD4026852065CBF02685FEA87
:100ED000426243D4026852065CBF02685FEA426223
:100EE0003CD4026852065CBF02685FEA426235D4B5
:100EF000026852065CBF02685FEA42622ED4026852
:100F000052065CBF02685FEA426227D4026852065A
:100F10005CBF02685FEA426220D4026852065CBF8E
:100F200002685FEA426219D4026852065CBF026836
:100F30005FEA426212D4026852065CBF02685FEA4E
:100F400042620BD4026852065CBF02685FEA4262EA
:100F500004D41B3942D002685206A0D5402101605A
:100F6000012104E0022902D10221082611E0826851
:100F700052070AD58268920707D482684FF6C07379
:100F8000C7F6FF731A401032826001294FF0040641
:100F900010D0826812070AD58268920707D4826847
:100FA0004FF6C073C7F6FF731A40203282600329E0
:100FB00008BF0C2601F002F821688968314217D079
:100FC000054602E08068304212D000F0F7FF411B76
:100FD00020680629F6D381683142F3D0E06D40F0F5
:100FE0001000E065206E40F001002066012070BD19
:100FF000002070BDB0B5016804468A688868C007E3
:101000004FF0000031D012F0020218BFB0BD886866
:1010100000F00D0001281FD188684FF6C072C7F696
:10102000FF721040023088600320086000F0C6FFA5
:1010300021688968C90704BF0020B0BD054602E0E9
:101040008068C00712D000F0B9FF411B2068032957
:10105000F6D38168C907F3D0E06D40F01000E06579
:10106000206E40F0010020660120B0BD0020B0BD20
:1010700070B582B004460020019021688A68D207CA
:1010800011D14FF6C076C7F6FF76886806F17F0269
:1010900010420AD0E06D40F01000E065206E40F094
:1010A00001002066012002B070BD8868304040F029
:1010B0000100886040F20830C5F2000000680002BC
:1010C00020D400F07BFF21680A68D20717D10546BB
:1010D00003E000BF0868C00711D18868C00704D1C9
:1010E0008868304040F00100886000F067FF401BD6
:1010F00021680328EED30868C007EBD1CAE70020B7
:1011000002B070BD40F20400C2F20000006842F676
:1011100063518009C0F23E51A0FB0101880900EB38
:1011200040000C2101EB8000019001980028C8D0FC
:1011300001980138019001980028C2D00198013827
:10114000019001980028BCD00198013801900198C5
:101150000028B6D001980138E6E70000FEE700005D
:1011600070470000EFF3108072B600BFFEE700008A
:101170007047000070470000704700007047000093
:1011800070470000F0B581B00022009290F858201E
:10119000012A01D10221BBE10123076880F8583000
:1011A000BB685B0734D4D1E900351F26C5F30124A1
:1011B00007EB8404226B05F01F05AE40C3F3846384
:1011C000B243AB401A432263BA68BB6802F0040220
:1011D00003F00803D21840F0BC800A6807F114033A
:1011E0000426C2F34064D1F808E006EAD25C53F862
:1011F0002440C2F304550722AA40BEF1004F24EA5E
:1012000002040BD143F80C401A6842F000430DE091
:10121000C16D41F02001C165012176E10EFA05F2B0
:10122000224343F80C201A6822F000437B61D1E985
:101230000435FC68042B5FD13A6E3A6E0B68C2F33A
:10124000846293FAA3F6C3F3846C6FF3DF43B6FAB8
:1012500086F5002B2C464FF6FF7E08BF6446A2425F
:10126000C0F2070E0CD13A6E22F000423A660A68CC
:1012700002EA0E03C2F3846C92FAA2F2B2FA82F589
:101280007A6E7A6E002BC2F384622C4608BF6446E5
:10129000A2420CD17A6E22F000427A660A6802EA13
:1012A0000E03C2F3846C92FAA2F2B2FA82F5BA6E1D
:1012B000BA6E002BC2F384622C4608BF6446A24279
:1012C0000CD1BA6E22F00042BA660A6802EA0E0336
:1012D000C2F3846C92FAA2F2B2FA82F5FA6EFA6E56
:1012E000002BC2F3846208BF6546AA4231D1FA6E70
:1012F00022F00042FA662CE0062202EA940205FA85
:1013000002FC0E6807F1600555F823404FF2000219
:10131000C0F2FF3206F0F846224046EA0C0632439D
:1013200042F0004245F823200A698B6955F8226093
:1013300026F08076334345F822300A690B7F55F852
:101340002260012B26F0007608BF06F1007645F8F2
:101350002260BA680D68D2074FD1CA68D7F8B0606A
:101360002B466FF3DF4326EA030C4FF6FF7602F0BD
:101370001804C0F20706E64000242E40C4F27F04A1
:1013800046EA0C06A242C7F8B06036D18BB195FA96
:10139000A5F2B2FA82F2013202F01E03092B02F02A
:1013A0001F030FD801229A4003EB430342EA035381
:1013B00014E0012202EB956202F01E030A2B02F0F8
:1013C0001F03EFD3012200269A4003EB4303CFF61D
:1013D000206606EB03531A4342F00073C3F34066E2
:1013E00007EB86068A687569C3F3045307249C409B
:1013F000A5439A402A4372610D680021C8F2080192
:101400000D4200F0818040F2083CC5F2000CDCF88F
:1014100000400021CCF221318D4204F0E07E04D066
:101420001021C9F2C0018D4240D1B7F1A04F4FF059
:10143000000108BF14F4000267D1DCF8001042F686
:10144000635221F0E07141EA0E0141F40001CCF851
:10145000001040F20401C2F200010968C0F23E52DD
:101460008909A1FB0212910901EB41010C2202EB57
:10147000810100910099002946D00099013900911D
:101480000099002940D00099013900910099D9B301
:101490000099013900910099B1B300990139009187
:1014A000009900294FF00001E7D12EE00021CCF295
:1014B00052718D4210D10021B1EB1E6F0CD1ACF5F1
:1014C00002718F4220D0DCF8001021F0E07141EA77
:1014D0000E0141F0807115E0ACF502718F424FF0C2
:1014E000000112D00022CCF68432954208BF14F4D9
:1014F00080020AD1DCF8001021F0E07141EA0E010F
:1015000041F48001CCF800100021002280F858201E
:10151000084601B0F0BD00007047000070470000B1
:101520000068006C704700002DE9F047056840F244
:101530000018C5F200082E68D5F804A0D8F8087283
:101540000446B0070FD51AF002000CD0E06DC006BB
:1015500003D4E06D40F40060E0652046FFF708FE2C
:10156000256802202860700707F01F0902D51AF0CD
:10157000040004D1300749D51AF0080046D02046AF
:1015800050F85C2FD20603D4026842F40072026065
:10159000EA6812F4406F33D12A46454508BF4FF040
:1015A000A0421346B9F1090F08BF2B46B9F1050F48
:1015B00008BF2B46B9F1000F08BF2B46AA4208BF4F
:1015C0001346DA6892041BD42A68120718D5AA6851
:1015D00052070BD46A6822F00C026A60016821F499
:1015E000807101600168C90406D509E0E06D40F032
:1015F0001000E06504F16000016841F00101016044
:101600002046FFF789FF25680C202860B00602D528
:101610001AF0200004D170062CD51AF0400029D011
:10162000204650F85C2FD20603D4026842F40052E0
:1016300002602946EF6CEA68454508BF4FF0A041BB
:101640000B46B9F1070F08BF2B46B9F1060F08BFCB
:101650002B46B9F1000F08BF2B46A94208BF0B4625
:10166000DB6817F4C07F6AD02046FFF783FD25684A
:101670006020286030060CD51AF0800009D0E06D9B
:1016800040F48030E065204600F09EF92568802017
:101690002860F0050DD51AF480700AD0E06D40F492
:1016A0000030E0652046FFF769FD25684FF4807043
:1016B0002860B0050DD51AF400700AD0E06D40F432
:1016C0008020E0652046FFF75BFD25684FF4007041
:1016D0002860F0061AD51AF0100017D0E06B38B168
:1016E000B9F1000F4CD0D8F8080210F4604F0BD0BD
:1016F000E06D40F48060E065206E40F002002066FE
:101700002046FFF70BFF256810202860700558BFA2
:10171000BDE8F0871AF480600FD0E06D4FF480616F
:1017200040F48040E065206E40F0080020662046CE
:101730002960BDE8F047FFF71FBDBDE8F0879901BC
:1017400006D502F4406103F4005289187FF48CAF8F
:10175000296849067FF588AF13F400117FF484AF40
:10176000A968090710D4696821F0600169600168FF
:1017700021F4805101600168C9053FF575AF09E0AA
:10178000E868C007B4D1BFE7E06D40F01000E06545
:1017900004F16000016841F00101016064E70000AC
:1017A000B0B582B004460020002C019054D0E06D0A
:1017B00030B9204600F00AF90020206684F858006D
:1017C00021688868800006D588684FF6C072C5F623
:1017D000FF72104088608868C00030D44FF6C07235
:1017E0008868C5F6FF7202F18052104000F1805007
:1017F000886040F20400C2F20000006842F66352C2
:101800008009C0F23E52A0FB02029009022202EBC4
:10181000400000BF0190019888B101980138019003
:10182000019860B1019801380190019838B1019890
:1018300001380190019810B101980138EAE78868F1
:10184000C0000CD4E06D40F01000E065206E40F068
:1018500001002066012003E0012002B0B0BD00209D
:101860008A68E36D02F0040203F01003D218E26DFF
:1018700071D122F481720232E2658A68D2071AD1EC
:1018800040F2083C4FF600534FF60062C5F2000CE0
:10189000CFF6FF73CFF6FF725CF803305CF80220DE
:1018A0001A43D20707D16268DCF8003023F47C13B6
:1018B0001A43CCF8002094F81DE0E36BD4E902C28F
:1018C00043EA4E331A4394F8243042EA0C02012BC7
:1018D00042EA034207D1D4F828C00023CFF6FE73B2
:1018E00003EB4C431A43E36A33B1D4F830C003F43A
:1018F000787343EA0C031A43D1F80CC044F207038F
:10190000CFF6F07303EA0C031A43CA600A69636BEB
:1019100022F040621A430A618A68120742D494F89E
:101920003820237F520042EA833CCB6844F2020213
:1019300023EA020242EA0C02CA6022690B6972B110
:1019400043F480330B61D1F8C0C043F6FF732CEA37
:1019500003031A430BE042F01001012030E023F4AE
:1019600080320A61D1F8C02043F6FF739A43C1F870
:10197000C02094F840300A69012B10D140F2FD7369
:1019800022EA030CD4E91132D4E913E543EA0C034B
:101990001A4342EA0E022A4342F0010201E022F019
:1019A00001020A6162690B6B012A23F00F0202D166
:1019B000236A013B1A430A63E16D012262F30101CC
:1019C000E16502B0B0BD00007047000010B598B0EE
:1019D00004460020CDE9160002A804304021FEF79D
:1019E0001FFE206840F20011C5F20001884201D0BC
:1019F00018B010BD4FF000504FF40044119002A8F1
:101A0000029400F02DFC002818BFFFF7ABFB41F259
:101A10004C00C4F20200016841F400510160016809
:101A200001F4005101910199016841F00201016046
:101A3000006813A900F0020001900198032014909F
:101A40000020159040F20040C4F60000139400F00E
:101A5000DBF912200F21002200F02AFB122000F0F7
:101A600015FB18B010BD000070B540F20015C5F2AE
:101A700000050446D5F8086200688068400703D472
:101A800094F85800012801D1022070BD012084F88B
:101A900058002046FFF7ECFA20B1002084F85800E7
:101AA000012070BD2068E16D40F60173994306F096
:101AB0001F0201F580760146A84208BF4FF0A04101
:101AC0000B1AB3FA83F35B09E66500D11AB9E66D28
:101AD00026F48016E665E56D0026ED044FF000055E
:101AE00044BF256E25F0060525661C25056084F893
:101AF000586043B9092A18D8012303FA02F240F2C8
:101B000021231A4211D0C168890104D5E16D012257
:101B100062F30D31E16581684FF6C072C7F6FF725E
:101B2000114004318160002070BDE06D40F48010F0
:101B3000E065C86880015CBF002070BDE06D0121D8
:101B400061F30D30E065002070BD000070B540F21B
:101B50000015C5F200050446D5F8086200688068E3
:101B6000400703D494F85800012801D1022070BD29
:101B7000012084F858002046FFF77AFA20B10020AF
:101B800084F85800012070BD2068E16D40F60173B3
:101B9000994301F58073014606F01F0EA84208BF65
:101BA0004FF0A0410E1AB6FA86F65FEA561CE365BE
:101BB00002D1BEF1000F03D1E36D23F48013E3657E
:101BC000E66D0023F6044FF0000644BF266E26F0B3
:101BD000060626661C26066084F85830436823F003
:101BE0001C034360A569E66B4268082D2B4618BFAD
:101BF00004231A4342601EB1BCF1000F07D010E06D
:101C0000426842F010024260BCF1000F09D1BEF1FF
:101C1000090F29D8012202FA0EF240F221231A42BA
:101C200022D0C168890115D5E16D012262F30D3121
:101C3000E16541686FF04002082D08BF6FF0200297
:101C400001EA0201416041684FF0200308BF4023D0
:101C50001943416081684FF6C072C7F6FF721140A8
:101C600004318160002070BDE26D42F48012E265B3
:101C7000C96889015CBF002070BDE16D012262F37B
:101C80000D31E1654168082D06D121F02001416048
:101C9000416841F0400105E021F0400141604168A8
:101CA00041F020014160002070BD0000B0B5044645
:101CB00090F85800012804BF0220B0BD012520463D
:101CC000032184F85850FFF7CFF860B92046FFF79A
:101CD00091F908B1012506E0E06D41F20111884358
:101CE00001300025E065002084F858002846B0BD8A
:101CF000014690F82500022827D180B50868D1E96F
:101D000010CE8A6C036823F00E030360136823F47B
:101D100080731360026822F0010202600EF01F005F
:101D2000012202FA00F0CCF80400D1E9132050603F
:101D3000486D30B1026822F480720260D1E9160267
:101D400042600020BDE8804002E00420C86301201A
:101D5000012281F82520002281F82420704700000C
:101D600090F82510022930D180B50168D0E910CE55
:101D7000826C0B6823F00E030B600B6823F00103E9
:101D80000B60116821F4807111600EF01F020121B7
:101D900001FA02F2CCF80420D0E913325A60426D05
:101DA00032B1136823F480731360D0E916235360B3
:101DB00080F82510826B002180F824100AB190472A
:101DC0000021BDE88040084670470421C16301211D
:101DD000002280F8251080F8242008467047000073
:101DE000B0B5044600F0EAF8054640F20C00C2F235
:101DF00000000068611C18BF044400BF00F0DEF85A
:101E0000401BA042FAD3B0BD2DE9F04F82B00D685F
:101E1000002D00F0C48000F13847860546EA972778
:101E200041F20046C4F60006062240F2004EB042DF
:101E300008BF0522C4F2010E052F38BF3A464FF005
:101E4000000C012400270026009209E00D680136ED
:101E500035FA06F207F102070CF1040C00F09F803E
:101E600004FA06FB15EA0B08F0D0D1F804A003230E
:101E70000AF003056A1EBB40012A6FEA03090FD866
:101E80008268CB6802EA0902BB401A43826042685A
:101E9000CAF3001322EA0B02B3401A43426003E084
:101EA000032D01D103251FE0C2688B6802EA0902F5
:101EB000BB401A43022DC26016D16FF0030202EA42
:101EC000560202440CF01C050F23D2F820A003FA9E
:101ED00005FB0B692AEA0B0AAB4043EA0A031362CB
:101EE000D1F804A00AF00305026805FA07F302EA34
:101EF00009021A431AF4403F0260A7D041F260037E
:101F0000C4F202031A684FF6084A42F001021A604E
:101F10001A68CFF6FF7A02F001020192019A26F0C8
:101F20000302724452F80A900CF00C050F23009C37
:101F3000AB4029EA030304FA05F52B4342F80A30C3
:101F4000DEF808204B6842EA080540F20C49DC0242
:101F500058BF22EA0805CEF80850C4F20109D9F8A2
:101F600000209D0242EA080458BF22EA0804C9F88A
:101F70000040DEF804209D0342EA080458BF22EA2C
:101F80000804CEF80440DEF80020DB0342EA08042F
:101F900058BF22EA0804CEF80040012456E702B0F8
:101FA000BDE8F08F0069084018BF012070470000AD
:101FB0001823002A08BF2823C150704740F2A030E0
:101FC000C2F200000068704740F20C0040F2A031FD
:101FD000C2F20000C2F2000100680A681044086002
:101FE0007047000080B5032000F08EF80F2000F04D
:101FF00009F800281CBF012080BD00F02DF800204A
:1020000080BD0000B0B540F20C01C2F200010968C9
:1020100001B3044640F20400C2F200004FF47A72A9
:102020000068B2FBF1F1B0FBF1F000F087FE0F2C7D
:102030004FF001050CD858B94FF0FF30214600226F
:10204000002500F035F840F21000C2F200000460F4
:102050002846B0BD0120B0BD82B041F25800C4F2A4
:102060000200816841F001018160816801F0010195
:1020700001910199016841F080510160006800F010
:1020800080500090009802B000F0E0B8002848BFEF
:10209000704700F01F01012202FA01F11C2202EA3E
:1020A000D0004EF20012CEF20002815070470000C4
:1020B00010B54EF60C5CCEF2000CDCF80030C3F329
:1020C000022E8EF00704042C28BF0424BEF1030363
:1020D0004FF0FF3E0EFA04F438BF0023A1439940AD
:1020E0000EFA03F39A43114300F00F0200F160432C
:1020F0000901043A03F564436244002848BF02F131
:102100000C03197010BD00004EF60C51CEF2000108
:102110000A684FF6FF031A4060F30A2242F080601B
:1021200040F0FD7008607047B0F5007F42D0002895
:1021300040F07F8047F21400C4F2000050F8141CF5
:10214000C26E01F4C06122F48072B1F5806FC26684
:102150002ED150F8141C012262F34A2140F8141CBD
:1021600040F20401C2F200010968322251434DF6E7
:102170008362C4F21B32A1FB0212910C0268520569
:1021800011D54A1C0FD0026852050CD559B102680E
:10219000520508D5012906D00268520503D5022947
:1021A000A1F10401EAD10068400544BF0320704753
:1021B0000020704747F21400C4F2000050F8141CCD
:1021C000C26E01F4C06142F48072B1F5806FC266E4
:1021D000EED150F8141C012262F34A2140F8141C7D
:1021E00040F20401C2F200010968322251434DF667
:1021F0008362C4F21B32A1FB0212910C02685205E9
:1022000011D54A1C0FD0026852050CD559B102688D
:10221000520508D5012906D00268520503D50229C6
:10222000A1F10401EAD10068400544BF03207047D2
:10223000BEE747F21400C4F2000050F8141C02225A
:1022400062F34A2140F8141C0020704747F208004E
:10225000C4F20000016841F4804101607047000051
:102260002DE9F04182B00446807841F288060007EB
:10227000C4F2020601D400202FE056F8300C5FEAC9
:10228000C0080BD456F8300C40F0805046F8300CA3
:1022900056F8300C00F080500190019847F200078A
:1022A000C4F20007386840F480703860FFF786FE9B
:1022B000054600BF3868C00500F1D480FFF77EFEF8
:1022C000401B0228F6D90320B8F1000F05D456F8B8
:1022D000301C21F0805146F8301C2168CA0712D109
:1022E0008A0718D44A071ED40A0724D48A062AD497
:1022F0004A0630D40A0636D4CA053CD48A0542D4EC
:102300004A0548D456E03268636822F003021A4353
:1023100032608A07E6D53268A36822F00C021A43BD
:1023200032604A07E0D53268E36822F030021A438F
:1023300032600A07DAD53268236922F0C0021A43F4
:1023400032608A06D4D53268636922F440621A4347
:1023500032604A06CED53268A36922F440521A434D
:1023600032600A06C8D53268E36922F440421A4353
:102370003260CA05C2D53268236A22F440321A4359
:1023800032608A05BCD53268636A22F440221A435F
:1023900032604A050ED53268A36A22F440121A430D
:1023A000B3F5801F326005D156F87C2C42F48012C0
:1023B00046F87C2C0A050ED53268E36A22F4400206
:1023C0001A43B3F5800F326005D156F87C2C42F4E5
:1023D000801246F87C2CCA040ED53268236B22F09A
:1023E00040721A43B3F1807F326005D156F87C2CDD
:1023F00042F4801246F87C2C8A040ED53268636B56
:1024000022F040621A43B3F1006F326005D156F8F2
:102410007C2C42F4801246F87C2C4A040ED532689B
:10242000A36B22F040621A43B3F1006F326005D112
:1024300056F87C2C42F4801246F87C2C09040ED508
:102440003168E26B21F040511143B2F1805F31609D
:1024500005D156F87C1C41F4803146F87C1C02B052
:10246000BDE8F081B06810F4407010D0216C884253
:102470000BD0B068B16820F4407041F48031B16095
:10248000B16821F48031B160B060C0070BD1B06891
:10249000216C20F440700843B0600020B8F1000FB8
:1024A0003FF51BAF13E7FFF789FD054641F288377B
:1024B000B0688007EBD4FFF781FD401BB842F7D925
:1024C00001E700002DE9F047002864D042F2000A3D
:1024D000C4F2020A0446DAF800000D4600F00F00CC
:1024E00088420CD2DAF8000020F00F002843CAF826
:1024F0000000DAF8000000F00F00A8424BD121687C
:1025000041F20808C807C4F2020803D1880740F165
:10251000D180B6E06068022839D003283ED158F84F
:10252000082C920137D5D8F80420D8F8043042F2AC
:102530000046C3F3031302F00302D8F8047001331A
:10254000C0F2F406032A04BF43F20066C0F26E161E
:10255000B6FBF3F2D8F80430C7F306277A43C3F387
:102560004163022707EB4303B2FBF3F24BF2004354
:10257000C0F2C4439A425AD9D8F8002012F0F00FA2
:102580004BD0890753D5A168002950D145E058F8B0
:10259000081C890306D40120BDE8F08758F8081C00
:1025A0004905F8D5D8F8001001F00C0104293ED0F7
:1025B000D8F8001001F00C01082938D0D8F8001024
:1025C00001F00C010C2932D1D8F80410D8F80420FD
:1025D00042F20047C2F3031201F00301D8F80430BD
:1025E0000132C0F2F407032904BF43F20067C0F2CE
:1025F0006E17B7FBF2F1D8F80420C3F30623594352
:10260000C2F34162022303EB4202B1FBF2F14BF24F
:102610000042C0F2C442914209D9D8F80010082201
:1026200062F307114FF00109C8F8001001E04FF004
:102630000009D8F8001021F003010843C8F8000091
:10264000FFF7BCFC064641F2883700BFD8F800000F
:10265000616800F00C00B0EB810F07D0FFF7AEFC13
:10266000801BB842F2D90320BDE8F08721688807B3
:1026700007D4B9F1000F1DD0D8F8000020F0F00009
:1026800016E0480705D5D8F8000040F4E060C8F827
:102690000000080706D5D8F80000072262F30D20D5
:1026A000C8F80000D8F80000A26820F0F00010433D
:1026B000C8F80000DAF8000000F00F00A8421AD9AC
:1026C000DAF8000020F00F002843CAF80000FFF7F6
:1026D00075FC064641F28837DAF8000000F00F007A
:1026E000A84207D0FFF76AFC801BB842F4D9032048
:1026F000BDE8F0872168480707D5D8F80000E268F0
:1027000020F4E0601043C8F80000080708D5D8F8A6
:102710000000216920F4605040EAC100C8F80000C0
:10272000D8F8000042F20041C0F2F40100F00C00C1
:10273000042808462DD0D8F8000000F00C00082826
:1027400043F20060C0F26E1023D0D8F8002002F0EF
:102750000C020C2A1CD1D8F80420D8F8043002F05E
:102760000302C3F30313D8F804700133032A08BF2C
:102770000146B1FBF3F0D8F80410C7F30627C1F304
:1027800041610222784302EB4101B0FBF1F000E02D
:102790000020D8F8001049F68052C1F30311C0F6AA
:1027A0000002515C40F2040201F01F0120FA01F125
:1027B00040F21000C2F200000068C2F20002116094
:1027C000BDE8F047FFF71EBC40F2040041F20801EB
:1027D000C2F20000C4F202010068096849F6905292
:1027E000C1F30221C0F60002515C01F01F01C84094
:1027F0007047000040F2040041F20801C2F20000FC
:10280000C4F202010068096849F69052C1F3C2217E
:10281000C0F60002515C01F01F01C8407047000083
:1028200041F20C01C4F2020151F8040C42F20042E0
:10283000C0F2F40200F00C000428104608BF7047F4
:1028400051F8040C00F00C00082843F20060C0F2BC
:102850006E1025D051F8043C03F00C030C2B1CBF68
:102860000020704780B5D1F800C00B680CF0030C55
:10287000C3F3031E0B680EF1010EBCF1030F08BF7A
:1028800002460968B2FBFEF0C3F30623C1F34161BF
:102890000222584302EB4101B0FBF1F0BDE8804059
:1028A00070470000002804BF012070472DE9F04167
:1028B00082B00446007841F20006C007C4F2020666
:1028C0001DD1207880073BD4207800075ED4207883
:1028D00040077CD42078800600F1CA80E569002D8D
:1028E00000F02882B06800F00C000C2840F01A813B
:1028F000012D40F07681012002B0BDE8F081B06882
:1029000000F00C01F068082958D0032281F00C0176
:1029100022EA00000844B0FA80F040094ED1606815
:10292000B0F5803F07D0B0F5A02F40F0D0803068E0
:1029300040F480203060306840F480303060D1E076
:10294000B068F16800F00C00042864D001F00301C5
:1029500080F00C0081F002010844B0FA80F04009D8
:1029600059D1E1683068002900F0CA8040F48070D5
:102970003060FFF723FB05463068400500F1F48026
:10298000FFF71CFB401B0228F6D926E16169D6F847
:102990009400002900F0898040F00100C6F89400FE
:1029A000FFF70CFB054600BFD6F8940080078ED4D5
:1029B000FFF704FB401B0228F6D90EE130688003C4
:1029C0007FF57FAF606800287FF47BAF39E0B06DA2
:1029D0005FEAC00808D4B06D40F08050B065B06DBB
:1029E00000F080500190019847F20007C4F2000700
:1029F0003868C00529D4386840F480703860FFF723
:102A0000DDFA05463868C0051FD4FFF7D7FA401B2A
:102A10000228F7D9E1E03068400501D5E06880B1CF
:102A20007068216920F0FE4040EA0160706040F269
:102A30001000C2F200000068FFF7E4FA00283FF43B
:102A400043AF012002B0BDE8F081A068012808D0A2
:102A5000052840F0A680D6F8900040F00400C6F8A3
:102A60009000D6F8900040F00100C6F89000A6E073
:102A7000A169D6F89800002900F07E8040F001009E
:102A8000C6F89800FFF79AFA054600BFD6F89800F6
:102A900080073FF523AFFFF791FA401B02284FF064
:102AA0000300F3D902B0BDE8F08120F00100C6F8C0
:102AB0009400FFF783FA0546D6F8940080077FF567
:102AC00006AFFFF77BFA401B0228F5D985E0316895
:102AD000002821F480313160316821F48021316097
:102AE00000F0B880FFF76AFA054600BF306880033F
:102AF0003FF5E7AEFFF762FA401B6428F6D96CE0B9
:102B000020F480703060FFF759FA054630684005C0
:102B10007FF5DAAEFFF752FA401B02284FF00300B0
:102B2000F4D9BFE7306820F080703060FFF746FAD4
:102B3000022D05460CD100BF3068800140F1B58000
:102B4000FFF73CFA401B02284FF00300F4D9A9E735
:102B50003068800140F1E780FFF730FA401B02281F
:102B60004FF00300F4D99DE77068216920F0FE4022
:102B700040EA01607060A7E620F00100C6F8980006
:102B8000FFF71CFA054600BFD6F8980080077FF5CE
:102B9000A5AEFFF713FA401B02284FF00300F3D94C
:102BA00080E7D6F89010002821F00101C6F89010B7
:102BB000D6F8901021F00401C6F890105AD0FFF713
:102BC000FDF9054641F28837D6F89000800763D4B6
:102BD000FFF7F4F9401BB842F6D9032002B0BDE874
:102BE000F081F068216A00F003028A427FF429AF85
:102BF000626A6FF00F0300F0F00103EB02129142E2
:102C00007FF41FAFA16A00F4FE42B2EB012F7FF404
:102C100018AFE16A00F07842B2EBC16F7FF411AFF8
:102C2000226B0023CFF6E07303EA025200F4C001E6
:102C3000A2F5001291427FF404AF616B4FF07E4227
:102C400002EA016100F0C06001F17E4188427FF438
:102C5000F8AE6FE0FFF7B2F9054600BF30688003B9
:102C60007FF52FAEFFF7AAF9401B64284FF0030051
:102C7000F4D917E7FFF7A2F9054641F2883700BFFC
:102C8000D6F89000800707D5FFF798F9401BB842A7
:102C90004FF00300F4D905E7B8F1000F3FF51AAE85
:102CA000B06D20F08050B06514E6F06848F20C0179
:102CB000C0F29F1104F1200700EA010C8ECF6FF0E3
:102CC0000F00D4E90C5400EB02100022CFF6E072A2
:102CD00041EA0C0102EA05520843A2F500124FF046
:102CE0007E4540EA032005EA0465104305F17E4570
:102CF00040EAC7602843F060306840F08070306080
:102D0000F06840F08070F060FFF758F9044600BFAB
:102D1000306880010ED4FFF751F9001B02284FF0F4
:102D20000300F5D9BEE6F0684FF6FC71CFF6EE6110
:102D30000840F060002002B0BDE8F081411E002094
:102D4000B0EB116F1CBF012070474EF21002CEF2A3
:102D5000000251604EF62351CEF20001F0230B70B9
:102D600007219060116070477047000070470000B5
:102D70007047000070470000704700007047000077
:102D800090F83C20012A4FF002024AD070B580F83A
:102D90003D20026843F2004C54689368C4F2010C71
:102DA00042F6004E6245C4F2010E01D0724503D1D5
:102DB0004D6824F470042C434FF68F75CFF6FF5501
:102DC0000E682C4042F6FF35C4F201053443AA4296
:102DD00054600FDCB2F1804F16D040F20046C4F2CE
:102DE0000006B24210D040F60006C4F20006B2421D
:102DF0000AD00EE0724507D044F20006C4F2010684
:102E0000B24201D0624504D1896823F0800319439E
:102E100091600121002280F83D1080F83C20BDE83F
:102E2000704010467047000070470000002804BF43
:102E30000120704710B5044690F83D0028B90020E5
:102E400084F83C00204600F023F8022084F83D007E
:102E50002068211D04F0A0FA012084F8480084F8BD
:102E60003E0084F83F0084F8400084F8410084F874
:102E7000420084F8430084F8440084F8450084F854
:102E8000460084F8470084F83D00002010BD000093
:102E900010B582B0006841F20001C4F2000188421E
:102EA00011D0B0F1804F27D141F25800C4F2020096
:102EB00001681C2441F001010160006800F001007C
:102EC000019001980DE041F25800C4F2020001683F
:102ED000362441F010010160006800F010000090FD
:102EE0000098204600210022FFF7E2F8204602B0B9
:102EF000BDE81040FFF7CAB802B010BD90F83D1011
:102F000001291DD1022180F83D10016842F6FF32EF
:102F1000C868C4F20102914240F00100C86011DCAF
:102F2000B1F1804F20D040F20040C4F20000814255
:102F30001AD040F60000C4F20000814214D020E014
:102F40000120704742F60040C4F2010081420BD0DC
:102F500044F20000C4F20100814205D043F2004077
:102F6000C4F2010081420CD188680722C0F201023C
:102F70000240062A4FF00000E3D0B2F5803F08BFC0
:102F80007047086840F001000860002070470000AA
:102F900090F83C20012A4FF0020200F0A88080B592
:102FA00080F83D20D0F800C08822DCF80830CFF649
:102FB000CE721A40CCF808200B686F2B0FDD1F2251
:102FC000C0F21002934235DCB3F5005F44DA702B97
:102FD00000F08F80B3F5805F00F08080D1E02F2B70
:102FE00034DD4F2B3DDC302B6CD0402B40F0C980C2
:102FF000D1F804E0C968DCF82030DCF8202022F0A9
:103000000102CCF82020DCF8182022F0F00242EA7D
:10301000011123F00A0242EA0E02CCF81810CCF893
:103020002020DCF808104FF68872CFF6CF721140DE
:10303000473151E03F21C0F210018B4238DC2021A2
:10304000C0F210018B423DD0302137E0D3B3102BBA
:1030500038D0202B36D094E05ED0B3F1101F31D0A1
:103060008FE0502B6BD0602B40F08B80D1F804E0C8
:10307000C968DCF82030DCF8202022F01002CCF8FF
:103080002020DCF8182022F4704242EA013123F0BB
:10309000A00242EA0E12CCF81810CCF82020DCF87E
:1030A00008104FF68872CFF6CF721140673113E0E7
:1030B0004021C0F210018B4204D07021C0F21001F7
:1030C0008B425ED1DCF808104FF68872CFF6CF72D3
:1030D0001140194341F00701CCF8081000220121EA
:1030E00080F83D10002180F83C10BDE8804010467B
:1030F0007047D1E901E3C968DCF8082043EA0E0310
:1031000022F47F4243EA01211143CCF80810DCF895
:10311000081041F07701DFE7D1E901E3C968DCF885
:10312000082043EA0E0322F47F4243EA01211143BF
:10313000CCF80810DCF8081041F48041CCE7D1F855
:1031400004E0C968DCF82030DCF8202022F001021D
:10315000CCF82020DCF8182022F0F00242EA01111D
:1031600023F00A0242EA0E02CCF81810CCF8202014
:10317000DCF808104FF68872CFF6CF721140573145
:10318000AAE70122ABE7000070470000F0B581B06C
:1031900004460068C5680669B10716D515F0020136
:1031A00013D06FF00201016101212177806980074E
:1031B00003D02046FFF7E8FF05E0204600F0CAF8FC
:1031C000204600F0E3FA00202077700718D515F0AC
:1031D000040015D020686FF00401016102212177FD
:1031E000806910F4407F03D02046FFF7CDFF05E053
:1031F000204600F0AFF8204600F0C8FA0020207703
:10320000300717D515F0080014D020686FF00801BA
:10321000016104212177C069800703D02046FFF7B0
:10322000B3FF05E0204600F095F8204600F0AEFA26
:1032300000202077F00618D515F0100015D0206872
:103240006FF01001016108212177C06910F4407FFF
:1032500003D02046FFF798FF05E0204600F07AF8FB
:10326000204600F093FA00202077F00718BF15F0F1
:10327000010006D020686FF001010161204600F0D6
:103280006FFB16F4025F05F0800718BF002F02D114
:10329000F00509D410E020686FF402510161204666
:1032A000FFF764FDF00507D537B120686FF4807132
:1032B00001612046FFF758FD700609D515F0400062
:1032C00006D020686FF040010161204600F080FCCC
:1032D000B00609D515F0200006D020686FF0200157
:1032E00001612046FFF744FDF00209D515F4801076
:1032F00006D020686FF4801101612046FFF73CFD85
:10330000B00209D515F4001006D020686FF4001142
:1033100001612046FFF72EFD700209D515F48000EB
:1033200006D020686FF4800101612046FFF726FD7A
:1033300030020CD515F4000009D021686FF40002AA
:1033400020460A6101B0BDE8F040FFF76DBD01B055
:10335000F0BD00007047000090F83C30012B04BF26
:10336000022070474FEAB202052A00F290812DE94F
:10337000F041DFE812F006005300A700FB004F0108
:103380008E0103681D6A1A6AA3F1804622F00102C9
:103390001A621A46A6F596369F05D3F804C052F86D
:1033A00018EF47EA96268F68D1F8008025F00205CD
:1033B000072E45EA07050AD80127B74017F0E50FA1
:1033C0001FBFCF6825F00C0527F004073D43072EEB
:1033D0000CD8012707FA06F616F0E50F1FBFD1E952
:1033E00005672CF44074264346EA070C4FF68C74AC
:1033F000CFF6FE740EEA040747EA0807C3F804C0D4
:103400009F614F6809695F631D629F6947F0080704
:103410009F619F6927F004079F6178E1036843F289
:1034200000461D6A1A6AC4F2010622F010021A62EE
:103430001A46D3F804C052F8188FB3428E68D1F8F8
:1034400000E025F0200545EA061505D042F60046C5
:10345000C4F20106B34207D1CE686FF0400725F0F1
:10346000C00507EA06163543A3F18046A6F5963651
:103470009F0547EA9626072E0CD8012707FA06F67D
:1034800016F0E50F1FBFD1E905672CF44064374300
:1034900044EA870C48F6FF44CFF6FF6404EA0804C8
:1034A00044EA0E27C3F804C09F614F6809699F630F
:1034B0001D629F6947F400679F619F6927F48067D9
:1034C0009F6123E1036843F200461D6A1A6AC4F251
:1034D000010622F480721A621A46D3F804C052F828
:1034E0001C8FB3428E68D1F800E025F4007545EAE0
:1034F000062505D042F60046C4F20106B34207D1C4
:10350000CE6840F2FF47360225F44065BE4335439E
:10351000A3F18046A6F596369F0547EA9626072E24
:103520000CD8012707FA06F616F0E50F1FBFD1E900
:1035300005672CF44054374344EA071C4FF68C745B
:10354000CFF6FE7404EA080444EA0E07C3F804C088
:10355000DF614F680969DF631D62DF6947F00807B3
:10356000DF61DF6927F00407DF61D0E0036843F221
:1035700000461D6A1A6AC4F2010622F480521A62D9
:103580001A46D3F804C052F81C8FB3428E68D1F8A3
:1035900000E025F4005545EA063505D042F6004620
:1035A000C4F20106B34207D1CE6844F6FF77360372
:1035B00025F44045BE433543A3F18046A6F5963633
:1035C0009F0547EA9626072E0CD8012707FA06F62C
:1035D00016F0E50F1FBFD1E905672CF440443743CF
:1035E00044EA871C48F6FF44CFF6FF6404EA080467
:1035F00044EA0E27C3F804C0DF614F6809691F64FD
:103600001D62DF6947F40067DF61DF6927F48067C7
:10361000DF617BE00368D3F820C01A6AA3F180471A
:1036200022F480321A621A46A7F596379C055D6827
:1036300052F8508FD1F800E08E6844EA9727072FA0
:1036400009D80124BC4014F0E50F1EBF4C6925F4D5
:10365000803545EA04252CF4003747EA06474FF643
:103660008C76CFF6FE76033606EA080646EA0E06A4
:103670005D601E654E6809699E641F621F6D47F09C
:1036800008071F651F6D27F004071F653FE0012134
:1036900043E00368D3F820C01A6AA3F1804722F4FC
:1036A00080121A621A46A7F596379C055D6852F893
:1036B000508FD1F800E08E6844EA9727072F09D889
:1036C0000124BC4014F0E50F1EBF4C6925F4802591
:1036D00045EA84252CF4001747EA065748F6FF46CA
:1036E000CFF6FF6606F5407606EA080646EA0E269D
:1036F0005D601E654E680969DE641F621F6D47F4D8
:1037000000671F651F6D27F480671F650902136836
:10371000194311600021BDE8F041002280F83C20EF
:1037200008467047002804BF0120704710B50446C2
:1037300090F83D0028B9002084F83C00204600F0B5
:1037400023F8022084F83D002068211D03F024FEA8
:10375000012084F8480084F83E0084F83F0084F893
:10376000400084F8410084F8420084F8430084F863
:10377000440084F8450084F8460084F8470084F843
:103780003D00002010BD0000704700000168B1F14D
:10379000804F18BF7047007F022814D140F2080004
:1037A000C2F2000000685022022808BF2822012827
:1037B00040F20C20C2F2000008BF0A220368042174
:1037C0009A6300F001B8704761B10A1F8B0743EAA2
:1037D0009202032A10D8DFE802F00212151800F155
:1037E0003F0314E090F83E20012A1CBF01207047DF
:1037F000022280F83E2028E000F1430307E000F1B8
:10380000400304E000F1410301E000F142031B78B2
:10381000012B1CBF01207047032A07D8DFE802F004
:10382000020A0E12022280F83F200EE0022280F8E7
:1038300043200AE0022280F8402006E0022280F8BD
:10384000412002E0022280F842204FEAB103032B1C
:103850004FF0010261D84AF6807C0068C0F6000C87
:103860005CF823C0C36801F01F0143EA0C03C36086
:10387000036A02FA01F123EA01020262026A830585
:103880000A43A0F18041A1F5963143EA912106292E
:10389000026244D8012202FA01F111F0650F3ED014
:1038A000416C42F6FF32C4F2010241F40041904201
:1038B00041640FDCB0F1804F1ED040F20041C4F2F1
:1038C0000001884218D040F60001C4F2000188428D
:1038D00012D01DE042F60041C4F2010188420BD033
:1038E00044F20001C4F20101884205D043F20041D4
:1038F000C4F2010188420BD181680722C0F20102A3
:10390000114006294FF0000207D0B1F5803F04D0E6
:103910000168002241F0010101601046704742F643
:10392000FF31C4F201018842C4DD43F6FF71C4F2E5
:103930000101884202DC42F60041D3E744F2000173
:10394000C4F201018842D7D044F60001C4F201015B
:10395000884202BF416C41F400414164D8E7000055
:103960002DE9F041006841F20001C4F200018842F3
:1039700001D0BDE8F08140F29030C2F20000D0E901
:10398000001240F25C38013142F10002C0E900123D
:10399000B1F1320072F10000C2F2000824BF03202E
:1039A000C8F8000040F26030C2F20000017840F236
:1039B0009834C2F2000481B1D4E90012D1F11D01A2
:1039C0004FF00001914108D3042005F005F8D4E937
:1039D0000002411C42F1000002E0002101700020C1
:1039E000C4E9001040F2A010C2F2000004F078FF19
:1039F0009FED5B1B54EC105B53EC112B28462146CA
:103A000006F04FF9C8B99FED5A0B284653EC102B1E
:103A1000214606F04DF99FED540B80B957EC106B21
:103A20002846214632463B4605F03AFF32463B46A1
:103A300005F0BAFD41EC100B01E09FED470BD8F803
:103A4000000040F2683740F20808C2F2000703287D
:103A5000C2F2000887ED000B3ED0012849D00028B3
:103A600018BFBDE8F081082004F0B6FF97ED000B09
:103A70009FED411B55EC104B53EC112B2046294672
:103A800006F008F99FED3E0B0226002853EC102BA0
:103A90002046294618BF032606F011F94AF6D971C7
:103AA0000028C0F600014FF0300018BF0126C8F80A
:103AB000006000F0BBFE97ED000B40F27034C2F2E4
:103AC00000044AF6EC7153EC102BC0F600012046BE
:103AD000FCF790FC35A526E0082004F029FF4AF603
:103AE000C674C0F600043020214600F09FFE26A5D3
:103AF00019E0082004F01CFF4AF6D971C0F6000155
:103B0000302000F093FE97ED000B40F27034C2F2CB
:103B100000044AF6EC7153EC102BC0F6000120466D
:103B2000FCF768FC1CA56020214600F07FFE782091
:103B3000294600F07BFE40F27034D8F80020C2F233
:103B400000041FA12046FCF755FC90202146BDE84B
:103B5000F04100F06BBE00BF0000000000004440D8
:103B600000000000000008400000000000002440A9
:103B7000000000000000F03F0000000000003E4098
:103B800000000000000039402020202020534C4538
:103B90004550494E4720200020202020204D4F44F2
:103BA000453D4D414E5520200000000020202020A2
:103BB000204D4F44453D4155544F2020000000000A
:103BC0002020202020474541523A25642020000033
:103BD0007047000090F88410012904BF022070474C
:103BE0002421C0F8881002681168136823F00103CB
:103BF000136021F000530021416613602022C0F8B9
:103C0000882080F884100846704700007047000044
:103C10007047000090F88420012A04BF02207047FA
:103C2000B0B52422C0F888200268D0F864E0D2F849
:103C300000C01368BEF1000F23F001031360936806
:103C400023F0606341EA0301916019D093689168A1
:103C50004AF6B07E490FC0F6000E4AF6B8751EF857
:103C60000140C0F60005695CC3F34263E400B4FBA5
:103C7000F1F11EF80340EB5CE500B5FBF3F301E066
:103C800001210123A0F86A102021A0F86830C2F8B1
:103C900000C0C0F88810002180F88410BDE8B04052
:103CA0000846704790F88420012A04BF022070471C
:103CB000B0B52422C0F888200268D0F864E0D2F8B9
:103CC00000C01368BEF1000F23F001031360936876
:103CD00023F0604341EA0301916019D09368916831
:103CE0004AF6B07E490FC0F6000E4AF6B8751EF8C7
:103CF0000140C0F60005695CC3F34263E400B4FB15
:103D0000F1F11EF80340EB5CE500B5FBF3F301E0D5
:103D100001210123A0F86A102021A0F86830C2F820
:103D200000C0C0F88810002180F88410BDE8B040C1
:103D30000846704770470000704700007047000059
:103D4000D0F88810D0F88C000843704770B501682F
:103D500040F62F03CA69044608688E681340202B7A
:103D60000BD100F0200306F080555B1916D0616F6F
:103D700069B32046BDE87040084740F60F031A4279
:103D80000CD00123C1F2000306EA030C40F2201319
:103D9000C0F20043034013EB0C0328D1E36ED506B9
:103DA00016D5012B14D110F0100311D01020086289
:103DB0008868400600F13A81B4F85C00B4F85E10FF
:103DC000B4F85E20002A18BF884240F0368270BDE9
:103DD000D30240F1E98116F4800300F0E5814FF44D
:103DE000801220460A62BDE87040FFF7A5BFD307E6
:103DF00018BF10F4807307D001230B62D4F8903001
:103E000043F00103C4F89030930706F0010E0AD581
:103E1000BEF1000F07D002230B62D4F8903043F0BC
:103E20000403C4F8903053070AD5BEF1000F07D041
:103E300004230B62D4F8903043F00203C4F89030AE
:103E400013070CD500F0200353EA0C0307D0082316
:103E50000B62D4F8903043F00803C4F89030130597
:103E60000BD510F0806308D04FF400630B62D4F8D8
:103E7000903043F02003C4F89030D4F89030002BF9
:103E8000A5D092060AD500F0200006F080528018D6
:103E900004D0626F12B1204690472168D4F8900098
:103EA000896800F0280001F04001401806D1204642
:103EB000FFF744FF0020C4F8900070BD206850E870
:103EC000000F216820F4907041E80002DAB1206808
:103ED00050E8000F216820F4907041E8000292B190
:103EE000206850E8000F216820F4907041E800023B
:103EF0004AB1206850E8000F216820F4907041E832
:103F00000002002ADAD14FF6FE70CEF6FF7000BF35
:103F1000216851E8021F2268014042E80213C3B140
:103F2000216851E8021F2268014042E8021383B170
:103F3000216851E8021F2268014042E8021343B1A0
:103F4000216851E8021F2268014042E80213002B59
:103F5000DED1E06E012824D1206850E8000F2168EE
:103F600020F0100041E80002DAB1206850E8000FAC
:103F7000216820F0100041E8000292B1206850E86A
:103F8000000F216820F0100041E800024AB12068CB
:103F900050E8000F216820F0100041E80002002ADC
:103FA000DAD12020C4F88C000020E0662168606728
:103FB0008868400640F1C681206850E8020F2168F9
:103FC00020F0400041E80202DAB1206850E8020F18
:103FD000216820F0400041E8020292B1206850E8D8
:103FE000020F216820F0400041E802024AB1206837
:103FF00050E8020F216820F0400041E80202002A48
:10400000DAD1D4F88000002800F09C8147F2F961F1
:10401000C0F600018163FDF7A3FE00283FF4D7AE90
:10402000D4F88000816BBDE870400847D4F8800068
:10403000006841688AB2002A3FF4C9AEB4F85C3027
:104040009A42BFF4C4AEA4F85E100068800600F186
:104050009E80206850E8000F216820F4807041E8BD
:104060000002DAB1206850E8000F216820F4807067
:1040700041E8000292B1206850E8000F216820F466
:10408000807041E800024AB1206850E8000F2168C2
:1040900020F4807041E80002002ADAD1206850E85C
:1040A000020F216820F0010041E80202BAB3206843
:1040B00050E8020F216820F0010041E8020272B3CB
:1040C000206850E8020F216820F0010041E8020258
:1040D0002AB3206850E8020F216820F0010041E86F
:1040E0000202002ADAD11AE0206850E8020F2168A3
:1040F00020F0400041E80202DAB1206850E8020FE7
:10410000216820F0400041E8020292B1206850E8A6
:10411000020F216820F0400041E802024AB1206805
:1041200050E8020F216820F0400041E80202002A16
:10413000DAD12020C4F88C000020E066206850E826
:10414000000F216820F0100041E80002DAB1206879
:1041500050E8000F216820F0100041E8000292B101
:10416000206850E8000F216820F0100041E80002AC
:104170004AB1206850E8000F216820F0100041E8A3
:104180000002002ADAD1D4F88000FDF7B1FD022048
:104190002067B4F85C00B4F85E10401A81B2204683
:1041A000BDE87040FFF732BD110606D500F0800172
:1041B00006F40003C91840F0C080510631D510F054
:1041C00040012ED0206850E8000F216820F0400008
:1041D00041E80002DAB1206850E8000F216820F0C1
:1041E000400041E8000292B1206850E8000F2168C9
:1041F00020F0400041E800024AB1206850E8000F7A
:10420000216820F0400041E80002002ADAD1202095
:104210000021C4F888002046A167BDE8704000F086
:1042200023BA110240F1938010F0804100F08F809A
:104230002046BDE87040FFF77DBD401A216851E877
:10424000001F226821F4907142E80013DBB121685D
:1042500051E8001F226821F4907142E8001393B1E5
:10426000216851E8001F226821F4907142E8001390
:104270004BB1216851E8001F226821F4907142E897
:104280000013002BDAD14FF6FE71CEF6FF7100BF9E
:10429000226852E8022F23680A4043E80226C6B18A
:1042A000226852E8022F23680A4043E8022686B1BA
:1042B000226852E8022F23680A4043E8022646B1EA
:1042C000226852E8022F23680A4043E80226002EA3
:1042D000DED12021C4F88C100021E166616700BFA7
:1042E000216851E8001F226821F0100142E8001304
:1042F000DBB1216851E8001F226821F0100142E87B
:10430000001393B1216851E8001F226821F01001C9
:1043100042E800134BB1216851E8001F226821F0E8
:10432000100142E80013002BDAD1022281B22046AC
:104330002267BDE87040FFF769BCA16F00297FF4D8
:1043400018AD44E52046BDE87040FFF7F7BCD10149
:104350007FF53DADB0F1FF3FC8BF70BD2046BDE861
:104360007040FFF755BC000010B5D0B10446D0F83E
:10437000880028B9002084F88400204600F026F840
:104380002420C4F888002068A16A026822F0010293
:10439000026011B1204603F089F8204603F074FE54
:1043A00008B1012010BD2168486820F490404860A1
:1043B000886820F02A008860086840F001022046E2
:1043C0000A60BDE8104003F0E3B8000010B596B0F5
:1043D0000446684608303C21FCF722F9206843F681
:1043E0000001C4F20101884201D016B010BD0120C5
:1043F0000090002468460194FDF732FF002818BFA2
:10440000FCF7B0FE41F24C00C4F20200416941F4F5
:1044100080414161416901F4804111911199016824
:1044200041F001010160006811A900F00100119044
:1044300011984FF4C06011900220CDE912040720BA
:1044400015904FF090401494FDF7DEFC25200921D3
:104450000022FDF72DFE2520FDF718FE16B010BD39
:10446000D0F88C30202B07D100294FF0010318BF62
:10447000002A04D11846704702231846704780B5B9
:104480000023C366D0F800C048F20003C4F2000362
:104490009C4533D0DCF804301B022FD5036853E869
:1044A00000CFD0F800E04CF080634EE8003CBCF157
:1044B000000F23D0036853E800CFD0F800E04CF0A1
:1044C00080634EE8003CBCF1000F17D0036853E84E
:1044D00000CFD0F800E04CF080634EE8003CBCF127
:1044E000000F0BD0036853E800CFD0F800E04CF089
:1044F00080634EE8003CBCF1000FCFD103F006FF13
:10450000002080BD006843F60001C4F2010188422A
:1045100018BF704780B540F2461EC2F2000EBEF9C9
:104520000010002924D440F24412C2F2000289B2E1
:1045300013784A0404D40D2B0CD141F4804215E0C9
:1045400048F2000C0022CFF6FF7C0A2B08BF41EA9C
:104550000C020BE00A4640F27C006FF39F32C2F27D
:10456000000083544A1CC62988BF0022AEF80020F0
:10457000BDE88040704700002DE9F04381B004465B
:10458000D0F8880020281FD1894600294FF001006B
:1045900067D01646002A64D00020C4F8900021207D
:1045A0001D46C4F88800FDF709FDA4F85460A4F87E
:1045B0005660A1680646B1F5805F01D1206938B127
:1045C000C8464FF0000905E0022001B0BDE8F083C5
:1045D0004FF00008B4F85610206839B36F1C0DE096
:1045E000B8F1000F1BD018F8011B8162B4F8561007
:1045F0000139A4F85610B4F85610B9B1C1690906CA
:10460000EED4002FFAD0FDF7D9FC01464FF003009D
:1046100025B3891BA94221D820680168EEE739F843
:10462000021B4FF000086FF35F21DEE7C169490606
:1046300013D46F1C03E000BFC16949060DD4002FDD
:10464000FAD0FDF7BBFC01464FF0030035B1891BE2
:10465000A94203D820680168EEE700202021C4F8B1
:10466000881001B0BDE8F08370470000FEE700004D
:10467000B0B5044640F2184500200021C4F60005FC
:1046800000F0D4FAD5F8FC03296980B241F4007136
:104690002961296941F480712961296841F020016B
:1046A00029602221C5F8FC13296941F02001296104
:1046B00000BF00BF00BF296841F0200129602968C0
:1046C00041F48071296000BF00BF00BF296841F438
:1046D00000712960C5F8FC034FF49630D5F8FC133F
:1046E0002A6989B242F400722A612A68043842F4C5
:1046F00080722A602A6842F020022A60C5F8FC43D2
:104700002A6942F020022A6100BF00BF00BF2A6868
:1047100042F020022A602A6842F480722A6000BFB8
:1047200000BF00BF2A6842F400722A60C5F8FC137B
:10473000D5F8FC132A6989B242F400722A612A680A
:1047400042F480722A602A6842F020022A60C5F88A
:10475000FC432A6942F020022A6100BF00BF00BF6B
:104760002A6842F020022A602A6842F480722A6095
:1047700000BF00BF00BF2A6842F400722A60C5F87B
:10478000FC13D5F8FC132A6989B242F400722A613D
:104790002A6842F480722A602A6842F020022A6065
:1047A000C5F8FC432A6942F020022A6100BF00BF1D
:1047B00000BF2A6842F020022A602A6842F4807210
:1047C0002A6000BF00BF00BF2A6842F400722A605E
:1047D000C5F8FC13D5F8FC132A6989B242F40072BB
:1047E0002A612A6842F480722A602A6842F0200214
:1047F0002A60C5F8FC432A6942F020022A6100BF02
:1048000000BF00BF2A6842F020022A602A6842F4F2
:1048100080722A6000BF00BF00BF2A6842F40072A5
:104820002A60C5F8FC137FF459AFB0BD0A78002A9E
:1048300008BF70472DE9F04149F6985804464D1CD1
:10484000002740F23F16C0F6000800BFA2F120008A
:10485000C1B2490051FA80F008EB0012B1B2204613
:1048600000F00AF8EA5D22B1103E132F07F10107AC
:10487000ECD3BDE8F04170472DE9F04F81B040F234
:104880001847144688468246C4F6000700F0CEF961
:1048900040F2000B40F2780600254FF02209C2F2E8
:1048A000000BC2F2000600BFD7F8FC03396980B2E2
:1048B00041F400713961396941F4807139613968B5
:1048C00041F020013960C7F8FC93396941F02001BB
:1048D000396100BF00BF00BF396841F02001396075
:1048E000396841F48071396000BF00BF00BF39688A
:1048F00041F400713960C7F8FC03002034F815104A
:10490000C140C907314608BF59460A88D7F8FC1389
:104910003B6989B243F400733B613B6843F48073A5
:104920003B603B6843F020033B60C7F8FC233A69D7
:1049300042F020023A6100BF00BF00BF3A6842F077
:1049400020023A603A6842F480723A6000BF00BFC9
:1049500000BF3A6842F400723A60C7F8FC1334F8BA
:104960001510421CD140C907314608BF59460A8874
:10497000D7F8FC133B69023043F400733B613B689A
:1049800089B243F480733B603B68102843F02003F6
:104990003B60C7F8FC233A6942F020023A6100BF4D
:1049A00000BF00BF3A6842F020023A603A6842F421
:1049B00080723A6000BF00BF00BF3A6842F40072E4
:1049C0003A60C7F8FC1399D10AF1010A5FFA8AF03C
:1049D000414600F02BF90135182D7FF465AF01B089
:1049E000BDE8F08F2DE9F04F8BB0002641F24C006E
:1049F0000596C4F20200016840F2184541F0040136
:104A000001600168C4F6000501F0040106910699F1
:104A1000016801AC41F001010160016840F6140930
:104A200001F00101069106990168C4F6000941F000
:104A3000020101600068214600F00200069006981D
:104A40004FF44870019001200290A5F11800012751
:104A5000CDE90366FDF7D8F94FF48070CDE9010781
:104A60004FF090402146CDE90366FDF7CDF94FF6B2
:104A7000FF7005F57A7406904FF0030806A92046EA
:104A80000A964FF6FF7B0797CDE90868FDF7BCF95A
:104A90004FF6004ACFF6FF7A55F80A0006A940F40F
:104AA000807045F80A0028684FF6FF7740F40870D8
:104AB0002860286940F400702861286940F48070FB
:104AC0002861286840F020002860C9F80060286943
:104AD00040F02000286100BF00BF00BF286840F000
:104AE00020002860286840F48070286020460A96DC
:104AF000CDF818B0CDF82480CDE90766FDF784F92C
:104B00004FF6104BCFF6FF7B55F80B0007A940F48A
:104B1000807045F80B0000BF00BF00BFD5F8F893C8
:104B200055F80A0040F4807045F80A00012081E839
:104B3000410106A920460A960697FDF765F92868FF
:104B400048F2302140F40070286040F29C10C2F21C
:104B50000000A0F800900088884202D100F054FACA
:104B600001E001F057F82869002640F40070286140
:104B700028694FF6FF7840F48070286128684FF06C
:104B8000030940F02000286040F61400C4F600003D
:104B90000660286906A940F02000286100BF00BF18
:104BA00000BF286840F020002860286840F480702A
:104BB000286020460A96CDE90686CDE90869FDF70A
:104BC00023F955F80B0007A940F4807045F80B0055
:104BD00000BF00BF00BFD5F8F87355F80A0040F4D5
:104BE000807045F80A00012081E8410206A92046AC
:104BF0000A96CDF81880FDF707F9286840F4007090
:104C0000286040F29C10C2F2000007800BB0BDE8A3
:104C1000F08F000081B0ADF80200BDF8020040F254
:104C20000001C2F20001088001B0704740F2184252
:104C3000C4F60002D2F8FCC3136943F40073136195
:104C4000136943F480731361136843F02003136006
:104C50002023C2F8FC33136943F02003136100BF23
:104C600000BF00BF136843F020031360136843F4D0
:104C700080731360C2F8FC03106940F020001061DB
:104C800000BF00BF00BF106840F020001060106837
:104C900040F4807010601FFA8CF0C2F8FC03D2F868
:104CA000FC03136980B243F400731361136943F486
:104CB00080731361136843F0200313602123C2F84B
:104CC000FC33136943F02003136100BF00BF00BF32
:104CD000136843F020031360136843F48073136078
:104CE000C2F8FC13116941F02001116100BF00BF3F
:104CF00000BF116841F020011160116841F480711A
:104D00001160C2F8FC03704781B0ADF80200BDF835
:104D1000020040F27801C2F20001088001B0704741
:104D2000B0B588B040F2A01040F20011C2F200000D
:104D3000C5F2000100244FF40032042580E816007B
:104D40000121CDE90644C0E90344C0E90545848357
:104D5000016280F82440C0E90B4480F83840C46305
:104D600080F84040FCF71CFD002818BFFCF7FAF95A
:104D700048F20000C3F6F06000900620CDE901047F
:104D80007F20CDE9030540F2A010C2F20000694681
:104D90000594FCF7F7F9002818BFFCF7E3F908B011
:104DA000B0BD0000B0B586B0002541F24C00CDE9A1
:104DB0000455C4F20200016801AC41F02001016019
:104DC000016801F0200100910099016841F00101A2
:104DD0000160016801F0010100910099016841F052
:104DE000020101600068214600F002000090009876
:104DF0000120CDE901054FF090400395FDF704F83F
:104E00000720CDE9010540F20040C4F6000021462C
:104E10000395FCF7F9FF06B0B0BD000010B594B0E3
:104E200040F20C200021C2F200004FF0804240F21C
:104E30008F1363240E91CDE90C11CDE90911CDE951
:104E40000711CDE90511CDE90311CDE90111C0E943
:104E50000023C0E9021401618161FDF7E7FF00282A
:104E600018BFFCF77FF94FF480500B9040F20C20F4
:104E7000C2F200000BA9FEF78BF8002818BFFCF760
:104E800071F940F20C20C2F20000FEF74BFC002842
:104E900018BFFCF767F940F20C200024C2F20000B2
:104EA00008A908940A94FDF76BFF002818BFFCF7C7
:104EB00059F96020CDE901040394059440F20C24D3
:104EC000C2F2000401A920460422FEF745FA002898
:104ED00018BFFCF747F92068B0F1804F01D014B03B
:104EE00010BD41F24C00C4F20200016841F0010122
:104EF000016000680FA900F001000F900F980220D8
:104F0000CDE90F000020CDE91100012013904FF0F2
:104F10009040FCF779FF14B010BD000010B584B0CC
:104F200040F2582041F200010024C2F20000C4F215
:104F3000000142F20F73029440F21F3280E8160023
:104F4000C3608461FDF772FF002818BFFCF70AF9FF
:104F500040F25820C2F2000001A901940394FDF729
:104F60000FFF002818BFFCF7FDF804B010BD0000CB
:104F700080B540F2A42043F60001C2F20000C4F262
:104F8000010100234FF00C0C4FF4E13280E80E00D9
:104F9000C0E90333C0E905C3C0E90733C0E90933F9
:104FA000FFF7E2F9002818BFFCF7DCF840F2A42074
:104FB000C2F200000021FEF775FE002818BFFCF7C2
:104FC000D1F840F2A420C2F200000021FEF722FE38
:104FD000002818BFFCF7C6F840F2A420C2F2000077
:104FE000FEF7F8FD002818BFFCF7BCF840F27C0083
:104FF000C2F20000C821FBF713FB80BDFEE70000F2
:10500000FEE700007047000080B540F21840C4F68B
:105010000000D0F8FC330169002241F40071016105
:1050200001694FF0010C41F48071016101684FF496
:10503000407E41F020010160C0F8FC23016941F08D
:105040002001016100BF00BF00BF016841F02001E5
:105050000160016841F480710160C0F8FCC301691E
:1050600041F02001016100BF00BF00BF016841F0B5
:1050700020010160016841F48071016099B2C0F8BB
:10508000FC13D0F8FC33016941F40071016101693E
:1050900041F480710161016841F020010160C0F8B4
:1050A000FCC3016941F02001016100BF00BF00BFE6
:1050B000016841F020010160016841F480710160E4
:1050C000C0F8FC23016941F02001016100BF00BF6D
:1050D00000BF016841F020010160016841F4807166
:1050E000016099B2C0F8FC13D0F8FC23016941F4C7
:1050F00000710161016941F480710161016841F051
:10510000200101601021C0F8FC13016941F0200169
:10511000016100BF00BF00BF016841F020010160D4
:10512000016841F48071016041F29071C0F8FC1394
:10513000016941F02001016100BF00BF00BF0168AB
:1051400041F020010160016841F48071016091B279
:10515000C0F8FC13D0F8FC23016941F4007101612F
:10516000016941F480710161016841F02001016031
:105170006021C0F8FC13016941F02001016100BF0A
:1051800000BF00BF016841F020010160016841F4E7
:10519000807101604FF41C51C0F8FC13016941F0AB
:1051A0002001016100BF00BF00BF016841F0200184
:1051B0000160016841F48071016091B2C0F8FC1394
:1051C000D0F8FC23016941F400710161016941F4E7
:1051D00080710161016841F0200101606121C0F826
:1051E000FC13016941F02001016100BF00BF00BF55
:1051F000016841F020010160016841F480710160A3
:10520000C0F8FCC301694FF0030C41F020010161BB
:1052100000BF00BF00BF016841F0200101600168CC
:1052200041F48071016091B2C0F8FC13D0F8FC2306
:10523000016992B241F400710161016941F4807128
:105240000161016841F0200101604621C0F8FC13B2
:10525000016941F02001016100BF00BF00BF01688A
:1052600041F020010160016841F480710160022178
:10527000C0F8FC13036943F02003036100BF00BFC3
:1052800000BF036843F020030360036843F48073A6
:105290000360C0F8FC23D0F8FC23036992B243F406
:1052A00000730361036943F480730361036843F08F
:1052B000200303601323C0F8FC33036943F0200389
:1052C000036100BF00BF00BF036843F02003036019
:1052D000036843F48073036048F21003C0F8FC33A2
:1052E000036943F02003036100BF00BF00BF0368F0
:1052F00043F020030360036843F480730360C0F845
:10530000FC23D0F8FC23036992B243F400730361D9
:10531000036943F480730361036843F0200303606F
:105320001223C0F8FC33036943F02003036100BF7C
:1053300000BF00BF036843F020030360036843F429
:105340008073036048F2FE03C0F8FC33036943F046
:105350002003036100BF00BF00BF036843F02003C8
:105360000360036843F480730360C0F8FC23D0F843
:10537000FC23036943F400730361036943F48073FE
:105380000361036843F020030360C0F8FC13016964
:1053900041F02001016100BF00BF00BF016841F082
:1053A00020010160016841F4807101604FF4A06147
:1053B000C0F8FC13016941F02001016100BF00BF8A
:1053C00000BF016841F020010160016841F4807173
:1053D000016091B2C0F8FC13D0F8FC23016941F4DC
:1053E00000710161016941F480710161016841F05E
:1053F00020010160C0F8FCC3016941F02001016196
:1054000000BF00BF00BF016841F0200101600168DA
:1054100041F48071016041F23001C0F8FC13016970
:1054200041F02001016100BF00BF00BF016841F0F1
:1054300020010160016841F48071016091B2C0F8FF
:10544000FC13D0F8FC33016940F2033241F40071DF
:105450000161016941F480710161016841F020013D
:1054600001603021C0F8FC13016941F020010161A5
:1054700000BF00BF00BF016841F02001016001686A
:1054800041F480710160C0F8FC23016941F0200102
:10549000016100BF00BF00BF016841F02001016051
:1054A000016841F48071016099B2C0F8FC13D0F832
:1054B000FC13036989B243F400730361036943F485
:1054C00080730361036843F0200303603123C0F855
:1054D000FC33036943F02003036100BF00BF00BF3A
:1054E000036843F020030360036843F480730360A0
:1054F000C0F8FC23036943F02003036100BF00BF31
:1055000000BF036843F020030360036843F4807323
:105510000360C0F8FC13D0F8FC13036989B243F4AC
:1055200000730361036943F480730361036843F00C
:10553000200303603223C0F8FC33036943F02003E7
:10554000036100BF00BF00BF036843F02003036096
:10555000036843F480730360C0F8FC23036943F0DD
:105560002003036100BF00BF00BF036843F02003B6
:105570000360036843F480730360C0F8FC13D0F841
:10558000FC13036989B243F400730361036943F4B4
:1055900080730361036843F0200303603323C0F882
:1055A000FC33036943F02003036100BF00BF00BF69
:1055B000036843F020030360036843F480730360CF
:1055C000C0F8FCE3036943F02003036100BF00BFA0
:1055D00000BF036843F020030360036843F4807353
:1055E0000360C0F8FC13D0F8FC13036989B243F4DC
:1055F00000730361036943F480730361036843F03C
:10560000200303603423C0F8FC33036943F0200314
:10561000036100BF00BF00BF036843F020030360C5
:10562000036843F480730360C0F8FCC3036943F06C
:105630002003036100BF00BF00BF036843F02003E5
:105640000360036843F480730360C0F8FC13D0F870
:10565000FC13036989B243F400730361036943F4E3
:1056600080730361036843F0200303603523C0F8AF
:10567000FC33036943F02003036100BF00BF00BF98
:10568000036843F020030360036843F480730360FE
:10569000C0F8FC23036943F02003036100BF00BF8F
:1056A00000BF036843F020030360036843F4807382
:1056B0000360C0F8FC13D0F8FC13036989B243F40B
:1056C00000730361036943F480730361036843F06B
:1056D000200303603623C0F8FC33036943F0200342
:1056E000036100BF00BF00BF036843F020030360F5
:1056F000036843F4807303601423C0F8FC33036928
:1057000043F02003036100BF00BF00BF036843F004
:1057100020030360036843F480730360C0F8FC1344
:10572000D0F8FC13036989B243F400730361036981
:1057300043F480730361036843F02003036037235D
:10574000C0F8FC33036943F02003036100BF00BFCE
:1057500000BF036843F020030360036843F48073D1
:105760000360C0F8FC23036943F02003036100BF1A
:1057700000BF00BF036843F020030360036843F4E5
:1057800080730360C0F8FC13D0F8FC13036989B27E
:1057900043F400730361036943F480730361036896
:1057A00043F0200303603823C0F8FC33036943F05F
:1057B0002003036100BF00BF00BF036843F0200364
:1057C0000360036843F480730360C0F8FC2303693B
:1057D00043F02003036100BF00BF00BF036843F034
:1057E00020030360036843F480730360C0F8FC1374
:1057F000D0F8FC13036989B243F4007303610369B1
:1058000043F480730361036843F02003036039238A
:10581000C0F8FC33036943F02003036100BF00BFFD
:1058200000BF036843F020030360036843F4807300
:105830000360C0F8FC23036943F02003036100BF49
:1058400000BF00BF036843F020030360036843F414
:1058500080730360C0F8FC13D0F8FC13036989B2AD
:1058600043F400730361036943F4807303610368C5
:1058700043F0200303603A23C0F8FC33036943F08C
:105880002003036100BF00BF00BF036843F0200393
:105890000360036843F480730360C0F8FCE30369AA
:1058A00043F02003036100BF00BF00BF036843F063
:1058B00020030360036843F480730360C0F8FC13A3
:1058C000D0F8FC13036989B243F4007303610369E0
:1058D00043F480730361036843F0200303603B23B8
:1058E000C0F8FC33036943F02003036100BF00BF2D
:1058F00000BF036843F020030360036843F4807330
:105900000360C0F8FCC3036943F02003036100BFD8
:1059100000BF00BF036843F020030360036843F443
:1059200080730360C0F8FC13D0F8FC13036989B2DC
:1059300043F400730361036943F4807303610368F4
:1059400043F0200303603C23C0F8FC33036943F0B9
:105950002003036100BF00BF00BF036843F02003C2
:105960000360036843F480730360C0F8FC23036999
:1059700043F02003036100BF00BF00BF036843F092
:1059800020030360036843F480730360C0F8FC13D2
:10599000D0F8FC13036989B243F40073036103690F
:1059A00043F480730361036843F0200303603D23E5
:1059B000C0F8FC33036943F02003036100BF00BF5C
:1059C00000BF036843F020030360036843F480735F
:1059D00003604FF4A053C0F8FC33036943F0200385
:1059E000036100BF00BF00BF036843F020030360F2
:1059F000036843F480730360C0F8FC13D0F8FC1311
:105A0000036989B243F400730361036943F480734B
:105A10000361036843F0200303609223C0F8FC3362
:105A2000036943F02003036100BF00BF00BF0368A8
:105A300043F020030360036843F4807303604FF472
:105A40000073C0F8FC33036943F02003036100BF17
:105A500000BF00BF036843F020030360036843F402
:105A600080730360C0F8FC13D0F8FC13036989B29B
:105A700043F400730361036943F4807303610368B3
:105A800043F0200303609323C0F8FC33036943F021
:105A90002003036100BF00BF00BF036843F0200381
:105AA0000360036843F480730360C0F8FC23026959
:105AB00042F02002026100BF00BF00BF026842F056
:105AC00020020260026842F480720260C0F8FC1397
:105AD000D0F8FC13026989B242F4007202610269D3
